:1012EC00EF1FAC0670011E4C600A7D027CEFDCFE29
:0412FC00DDFC80ECA9
:0113000022CA
:0B138700D288C289D2A8D2AFD2B8220F
:0613BA0012132702138745
:0D134600E50F6006E4F50F7F01227F002215
:0D135300E50D6006E4F50D7F01227F00220C
:0313C600AF0C2247
:0313C900AF0B2245
:03000300020C5F8D
:100C5F00C0E0C0F0C083C082C0D075D000C000C05B
:100C6F0001C002C003C004C005C006C007E508707C
:100C7F000CFFFE1213927F011213C08049E5086426
:100C8F000170491213B18E098F0AE4FFFE121392FD
:100C9F00D3E50A94A6E509942E4010E50A948EE553
:100CAF000994325006750802020D92D3E50A948C0E
:100CBF00E50994264010E50A9474E509942A500634
:100CCF00750D01020D8A750801020D92E508640287
:100CDF006003020D921213B18E098F0AE4FFFE1208
:100CEF001392D3E50A9414E5099402402BE50A9474
:100CFF00FCE50994055021E50E131313541F24101E
:100D0F00F8C000E6FFE50E5407FEF87401088002F4
:100D1F00C333D8FCF45F8033D3E50A9426E50994F6
:100D2F0006402FE50A940EE509940A5025E50E13A7
:100D3F001313541F2410F8C000E6FFE50E5407FEEE
:100D4F00F87401088002C333D8FC4FD000F6050EAB
:100D5F008006750E00750801C3E50E94207480940B
:100D6F00804020750E00E511F4B5100FE513F4B5B2
:100D7F00120985100C85120B750F01E4FF1213C0B9
:100D8F00750800D007D006D005D004D003D002D00C
:0E0D9F0001D000D0D0D082D083D0F0D0E0328E
:100FFA00E4F54020B1137F14FE1212EC30B1FD7FEC
:10100A00147E001212EC75400120B0147F147E0089
:10101A001212EC30B0FD7F147E001212EC75400201
:10102A0020B2147F147E001212EC30B2FD7F147EBF
:10103A00001212EC75400320B3147F147E001212C2
:10104A00EC30B3FD7F147E001212EC754004AF4001
:01105A002273
:0D13600054656D70657261747572653A00B8
:100F9600121346EF60521213C98F2E7E00EF6416AD
:100FA6007002F533EF640C4E7003753301EF64186D
:100FB6004E7003753302EF645E4E7003753303E5BE
:100FC600337004FF1213CFE533640170057F3212CC
:100FD60013CFE533640270057F4B1213CFE53364FC
:100FE6000370057F641213CFE533FD7C007F011289
:040FF6000F29809CA3
:100DAD0012137A7FE87E031212EC1213017BFF7A85
:100DBD001379607D017F01121222C28E12137A7F88
:100DCD00E87E031212EC1211898F328E318D308C28
:100DDD002FD28EE4FFFEFDFCAB32AA31A930A82F35
:100DED001209A6501E7B2D7D017F021213A7AF3273
:100DFD00AE31AD30AC2F120A1F8F328E318D308C4B
:100E0D002F80097B2B7D017F021213A7AF32AE31EC
:100E1D00AD30AC2F120A6EAB07AA067522037D0208
:100E2D007F021211FE7B2E7D057F021213A77F001C
:100E3D007E407D1C7C46AB32AA31A930A82F12080A
:100E4D0000120A6EE47B107A27F9F8120BBF752297
:100E5D00027D067F021211FEE4FFFE7DD07C41ABC8
:100E6D0032AA31A930A82F1209A650057F1E1213E0
:100E7D00CFE4FFFE7DD07C41AB32AA31A930A82F43
:100E8D001209A65003020DC77F501213CF020DC7D2
:1011DA001213CC1213BA121346EF60FA1213C98F04
:1011EA002EEF641C7003120DADE52E640870E71231
:0411FA000F9680E2EA
:0313CC000212D535
:0313CF008F3E222C
:03001B0002115E71
:10115E00C0E0C0F0C0D0758BAE758DFB053FE53F8E
:10116E0075F0648485F03FE53FC3953E5004D29000
:0B117E008002C290D0D0D0F0D0E03250
:0C136D000A143F065B4F666D7D077F6F22
:100F2900EF14B408005054900F3E75F003A4C58324
:100F390025F0C58373020F56020F5A020F5E020F86
:100F490062020F66020F6E020F76020F7ED2A48034
:100F59000ED2A48012D2A48016D2A4801AC2A4D21E
:100F6900A3D2A28016C2A4D2A3C2A2800EC2A4C2D6
:100F7900A3D2A28006C2A4C2A3C2A274142DF8E609
:0D0F8900F5807F017E001212ECE4F580225D
:101327005389F0438901E4F58AF58CC28DC28C227A
:0B139200AD07AC068C8CAF058F8A22E3
:0913B100AF8CEFFEAD8AEDFF22C6
:0613C000EF24FF928C22D5
:1012D50053890F438910758BAE758DFBC28FD28EE6
:0712E500D2ABD2AFC2BB2265
:0D137A001212A37FCC1212457F44021245CF
:101189001212A37FCC1212457FBE1212451211B45E
:101199008F1E1211B4EFFEE51EFFFDAC06EC120A1C
:0B11A90035E4FBFA7980784102090967
:06133700C2A58F80D2A7C1
:08133D007F027EEFDEFEDFFC03
:011345002285
:0A139D00C2A6121337C2A702133DC7
:10126700CFCDCFCECCCE120B2E7C007D0A120B2E0B
:04127700ED2430FF33
:0A127B00D2A6121337C2A702133DDA
:10128500AE07EEFB7A0064017004ED148009EB648F
:0E129500024A7009ED243F4480FF12139D228F
:101301007F3812139D7F0C12139D7F0612139D7F50
:041311000102139D25
:0A13A700AC03121285AF0402127BA2
:061222008B1E8A1F8920CB
:10122800121285E4FDAB1EAA1FA9208D82758300CA
:0C123800120AEFFF600612127B0D80E925
:011244002287
:0A112D00EF24FFFDEE34FFFC7F0A03
:081137008E238F248C258D26E8
:10113F007F017E00E4FBEBC39526E5256480F87400
:0E114F008098500AAC23AD24120B1C0B80E8D4
:01115D00226F
:0411FE008A208B2197
:10120200121285AA22EAFF7E00D394007480948091
:0F121200400D12112DAC20AD211212671A80E68B
:0112210022AA
:0410A6008B828A832C
:1010AA00121285C3E58364809480400D7F2B12124F
:1010BA007B85832C85822D80107F2D12127BC3E4C1
:1010CA009582F52DE49583F52CAA2BEAFF7E00D3B1
:1010DA00940074809480400D12112DAC2CAD2D1209
:0510EA0012671A80E608
:0110EF0022DE
:04105B008A368B370F
:10105F00121285AA38EAD39400748094804037EA3C
:10106F0024FFFDE434FFFC7F107E00121137AC36F5
:10107F00AD37CFCDCFCECCCE120B2EEF540FFEC34C
:10108F00940A74809480EE5004243080022437FF39
:06109F0012127B1A80BF53
:0110A5002228
:0410F0008A3B8B3C70
:1010F400121285AA3DEAFF7E00D394007480948086
:101104004026EF24FFFDEE34FFFC7F02121137ACC2
:101114003BAD3CCFCDCFCECCCE120B2EEF54012421
:0811240030FF12127B1A80CD8E
:01112C0022A0
:1012A300D2B7C2B77FF7DFFED2B77F20DFFEA2B788
:0912B300E433FE7FF7DFFEAF0615
:0112BC00220F
:10131500C2B77E04DEFEEF24FF92B77E18DEFED252
:01132500B710
:0113260022A4
:1012BD00C2B77F02DFFED2B77F02DFFEA2B7E433F3
:0712CD00FE7F18DFFEAF06F3
:0112D40022F7
:02124500AD07F3
:10124700E4FCECC39408748094805013A8047401E0
:0F125700088002C333D8FC5DFF1213150C80E32F
:011266002265
:1011B400E4FDFCECC394087480948050161212BDB4
:1011C400EF600DA8047401088002C333D8FC420503
:0511D4000C80E0AF05F6
:0111D90022F3
:10080000EC4D6011E8497017ED33EC3304600DE4F2
:10081000FCFFFEFD22E933E8330470F8020ADA1225
:100820000AA558046009E4CC248150062850090226
:100830000AE4284003020AE1C0E0EB4A7044B980B0
:1008400006D0E0FB020AD0EF4E701CBD8008EBFF23
:10085000EAFEE9FD80EBE98DF0A4FEE5F00208E98F
:10086000E9CDF9EAFEEBFFEF89F0A4FCE5F0CE89D3
:10087000F0A42EFFE435F0CD89F0A42DFEE435F090
:100880008067EF4E7005BD80D780C3EF8BF0A4ACBE
:10089000F0EE8BF0A42CFCE435F0F8EF8AF0A42CF9
:1008A000E5F038FCE433CB8DF0A42CFCE5F03BF80C
:1008B000EE8AF0A42CFCE5F038F8E433CF89F0A4FC
:1008C0002CFCE5F038CF3400CE89F0A42FFFE5F002
:1008D0003EFEE433C98DF0A42EFEE5F039CD8AF05A
:1008E000A42FFFE5F03EFEE43DFD33D0E0FB5007D2
:1008F0000BBB000F020AE4EC2CFCEF33FFEE33FEDF
:06090000ED33FD020ABC0C
:10090600020AE4EC5D046005E859047003020ADAA1
:10091600120AA5580460F6EC4860F2EC7004FDFE7D
:10092600FF22C860DB2481C85009C39860025006C4
:10093600020AE19850CAF582E9294B4A7005AB8252
:10094600020AD075F0007C1A7880C3EF9BEE9AED10
:1009560099400DC3EF9BFFEE9AFEED99FDE842F03C
:10096600DC23ACF0D0E0FFD0E0FED0E0FDAB82208F
:10097600E7101BEB60BAEC2CFCEF33FFEE33FEED19
:1009860033FD020ABCE803F830E705C0F075F00055
:10099600EF2FFFEE33FEED33FD40B830E7C280AAFD
:1009A60074F8CC6480CCC86480C8F58204604FC3F8
:1009B600EB9FF5F0EA9E42F0E99D42F0E89C45F097
:1009C600603C501DE5825FFFE582D313CB5BCBF421
:1009D6002B5582FB50280ABA002409B9002008804A
:1009E6001DE5825BFBE582D313CF5FCFF4C3132FE4
:1009F6005582FF50090EBE00050DBD00010CC3EB6C
:100A06009FF5F0EA9E42F0E99D42F0E89C45F060D1
:090A160007CC4820E701B3EC22F3
:100A1F00ED33EC33600A047003BD8004ECB2E7FCE5
:010A2F0022A4
:100A300075F020800E75F010800575F0087D007E41
:100A4000007F003392D530D503120C51EC334010A7
:100A5000EF33FFEE33FEED33FDEC33FCD5F0ED224A
:0E0A6000E5F0247EA2D513CC92E7CDCEFF2286
:100A6E00EDD2E7CD33EC3392D524814006E4FFFE80
:100A7E00FDFC22FCE4CFCECDCC24E0501174FF80DF
:100A8E00EDC3CC13CCCD13CDCE13CECF13CF04707C
:070A9E00F030D5DE020C511F
:100AA500E9D2E7C933E833F892D5EDD2E7CD33EC97
:070AB50033FC5002B2D52210
:100ABC00EC30E7100FBF000C0EBE00080DBD00049B
:100ACC000BEB6014A2D5EB13FCED92E7FD2274FF47
:100ADC00FCFDFEFF22E480F8A2D574FF13FC7D80A0
:030AEC00E480EFB4
:03000000020E9D50
:0C0E9D00787FE4F6D8FD758140020EE479
:100AEF00BB010CE58229F582E5833AF583E02250BC
:100AFF0006E92582F8E622BBFE06E92582F8E22206
:0D0B0F00E58229F582E5833AF583E493221F
:100B1C00EF8DF0A4A8F0CF8CF0A428CE8DF0A42EED
:020B2C00FE22A7
:100B2E00BC000BBE0029EF8DF084FFADF022E4CCAB
:100B3E00F875F008EF2FFFEE33FEEC33FCEE9DEC74
:100B4E00984005FCEE9DFE0FD5F0E9E4CEFD22EDBA
:100B5E00F8F5F0EE8420D21CFEADF075F008EF2F04
:100B6E00FFED33FD4007985006D5F0F222C398FDF5
:050B7E000FD5F0EA2292
:100B830075F008758200EF2FFFEE33FECD33CDCC29
:100B930033CCC58233C5829BED9AEC99E5829840AC
:100BA3000CF582EE9BFEED9AFDEC99FC0FD5F0D689
:100BB300E4CEFBE4CDFAE4CCF9A88222B800C1B9B3
:100BC3000059BA002DEC8BF084CFCECDFCE5F0CBF1
:100BD300F97818EF2FFFEE33FEED33FDEC33FCEB2A
:100BE30033FB10D703994004EB99FB0FD8E5E4F9E5
:100BF300FA227818EF2FFFEE33FEED33FDEC33FCD2
:100C0300C933C910D7059BE99A4007EC9BFCE99AC5
:100C1300F90FD8E0E4C9FAE4CCFB2275F010EF2F0A
:100C2300FFEE33FEED33FDCC33CCC833C810D7070A
:100C33009BEC9AE899400AED9BFDEC9AFCE899F845
:0E0C43000FD5F0DAE4CDFBE4CCFAE4C8F922D8
:0E0C5100C3E49FFFE49EFEE49DFDE49CFC22B4
:100EA9000211DAE493A3F8E493A34003F68001F274
:100EB90008DFF48029E493A3F85407240CC8C3334A
:100EC900C4540F4420C8834004F456800146F6DF19
:100ED900E4800B010204081020408090136DE47E29
:100EE900019360BCA3FF543F30E509541FFEE4930E
:100EF900A360010ECF54C025E060A840B8E493A3D5
:100F0900FAE493A3F8E493A3C8C582C8CAC583CAFF
:100F1900F0A3C8C582C8CAC583CADFE9DEE780BEB7
:011379000073
:00000001FF
